{
  "contractName": "ClinicaDental",
  "abi": [
    {
      "inputs": [],
      "stateMutability": "nonpayable",
      "type": "constructor"
    },
    {
      "anonymous": false,
      "inputs": [
        {
          "indexed": false,
          "internalType": "uint256",
          "name": "idCita",
          "type": "uint256"
        },
        {
          "indexed": false,
          "internalType": "uint256",
          "name": "idPaciente",
          "type": "uint256"
        },
        {
          "indexed": false,
          "internalType": "string",
          "name": "nombreDentista",
          "type": "string"
        },
        {
          "indexed": false,
          "internalType": "uint256",
          "name": "fecha",
          "type": "uint256"
        }
      ],
      "name": "CitaAgregada",
      "type": "event"
    },
    {
      "inputs": [
        {
          "internalType": "address",
          "name": "_usuario",
          "type": "address"
        },
        {
          "internalType": "bool",
          "name": "_permiso",
          "type": "bool"
        }
      ],
      "name": "cambiarPermisoAcceso",
      "outputs": [],
      "stateMutability": "nonpayable",
      "type": "function"
    },
    {
      "inputs": [
        {
          "internalType": "uint256",
          "name": "_idPaciente",
          "type": "uint256"
        },
        {
          "internalType": "string",
          "name": "_profesionPaciente",
          "type": "string"
        },
        {
          "internalType": "uint256",
          "name": "_edadPaciente",
          "type": "uint256"
        },
        {
          "internalType": "string",
          "name": "_peso",
          "type": "string"
        },
        {
          "internalType": "string",
          "name": "_pulso",
          "type": "string"
        },
        {
          "internalType": "string",
          "name": "_antecedentes_medicos",
          "type": "string"
        },
        {
          "internalType": "string",
          "name": "_tipoSangre",
          "type": "string"
        },
        {
          "internalType": "string",
          "name": "_alergias",
          "type": "string"
        },
        {
          "internalType": "string",
          "name": "_nombreDentista",
          "type": "string"
        },
        {
          "internalType": "uint256",
          "name": "_fecha",
          "type": "uint256"
        },
        {
          "internalType": "string",
          "name": "_motivo",
          "type": "string"
        },
        {
          "internalType": "string",
          "name": "_observaciones",
          "type": "string"
        }
      ],
      "name": "agregarCita",
      "outputs": [],
      "stateMutability": "nonpayable",
      "type": "function"
    },
    {
      "inputs": [
        {
          "internalType": "uint256",
          "name": "_idPaciente",
          "type": "uint256"
        }
      ],
      "name": "getCitasDePacienteSinFiltrar",
      "outputs": [
        {
          "internalType": "uint256[]",
          "name": "",
          "type": "uint256[]"
        }
      ],
      "stateMutability": "view",
      "type": "function",
      "constant": true
    },
    {
      "inputs": [
        {
          "internalType": "uint256",
          "name": "_idPaciente",
          "type": "uint256"
        }
      ],
      "name": "getCitasDePaciente",
      "outputs": [
        {
          "components": [
            {
              "internalType": "uint256",
              "name": "idCita",
              "type": "uint256"
            },
            {
              "internalType": "uint256",
              "name": "idPaciente",
              "type": "uint256"
            },
            {
              "internalType": "string",
              "name": "profesionPaciente",
              "type": "string"
            },
            {
              "internalType": "uint256",
              "name": "edadPaciente",
              "type": "uint256"
            },
            {
              "internalType": "string",
              "name": "peso",
              "type": "string"
            },
            {
              "internalType": "string",
              "name": "pulso",
              "type": "string"
            },
            {
              "internalType": "string",
              "name": "antecedentes_medicos",
              "type": "string"
            },
            {
              "internalType": "string",
              "name": "tipoSangre",
              "type": "string"
            },
            {
              "internalType": "string",
              "name": "alergias",
              "type": "string"
            },
            {
              "internalType": "string",
              "name": "nombreDentista",
              "type": "string"
            },
            {
              "internalType": "uint256",
              "name": "fecha",
              "type": "uint256"
            },
            {
              "internalType": "string",
              "name": "motivo",
              "type": "string"
            },
            {
              "internalType": "string",
              "name": "observaciones",
              "type": "string"
            },
            {
              "internalType": "address",
              "name": "dentistaWallet",
              "type": "address"
            }
          ],
          "internalType": "struct ClinicaDental.Cita[]",
          "name": "",
          "type": "tuple[]"
        }
      ],
      "stateMutability": "view",
      "type": "function",
      "constant": true
    },
    {
      "inputs": [],
      "name": "getNumeroDeCitas",
      "outputs": [
        {
          "internalType": "uint256",
          "name": "",
          "type": "uint256"
        }
      ],
      "stateMutability": "view",
      "type": "function",
      "constant": true
    }
  ],
  "bytecode": "0x60806040526001805534801561001457600080fd5b50600380546001600160a01b031916331790556113bc806100366000396000f3fe608060405234801561001057600080fd5b50600436106100575760003560e01c8063413822d81461005c57806372055b0a14610085578063b07692b614610096578063ce98ec19146100ab578063eec551fc146100be575b600080fd5b61006f61006a366004610dd0565b6100de565b60405161007c9190610de9565b60405180910390f35b60005460405190815260200161007c565b6100a96100a4366004610e21565b610140565b005b6100a96100b9366004610f0e565b6101d6565b6100d16100cc366004610dd0565b6104dc565b60405161007c919061112a565b60008181526002602090815260409182902080548351818402810184019094528084526060939283018282801561013457602002820191906000526020600020905b815481526020019060010190808311610120575b50505050509050919050565b6003546001600160a01b031633146101ab5760405162461bcd60e51b8152602060048201526024808201527f536f6c6f20656c2061646d696e2070756564652063616d62696172207065726d60448201526369736f7360e01b60648201526084015b60405180910390fd5b6001600160a01b03919091166000908152600460205260409020805460ff1916911515919091179055565b3360009081526004602052604090205460ff16806101fe57506003546001600160a01b031633145b61024a5760405162461bcd60e51b815260206004820152601e60248201527f41636365736f2064656e656761646f3a206e6f206175746f72697a61646f000060448201526064016101a2565b6000604051806101c0016040528060015481526020018e81526020018d81526020018c81526020018b81526020018a8152602001898152602001888152602001878152602001868152602001858152602001848152602001838152602001336001600160a01b0316815250905060008190806001815401808255809150506001900390600052602060002090600e020160009091909190915060008201518160000155602082015181600101556040820151816002019080519060200190610313929190610d37565b506060820151600382015560808201518051610339916004840191602090910190610d37565b5060a08201518051610355916005840191602090910190610d37565b5060c08201518051610371916006840191602090910190610d37565b5060e0820151805161038d916007840191602090910190610d37565b5061010082015180516103aa916008840191602090910190610d37565b5061012082015180516103c7916009840191602090910190610d37565b50610140820151600a82015561016082015180516103ef91600b840191602090910190610d37565b50610180820151805161040c91600c840191602090910190610d37565b506101a082015181600d0160006101000a8154816001600160a01b0302191690836001600160a01b031602179055505050600260008e815260200190815260200160002060015490806001815401808255809150506001900390600052602060002001600090919091909150557ff0ea75c31f27027285183d2a174954db1850712e651004aefae4b695d8e412366001548e87876040516104b094939291906112bd565b60405180910390a1600180549060006104c883611303565b919050555050505050505050505050505050565b3360009081526004602052604090205460609060ff168061050757506003546001600160a01b031633145b6105535760405162461bcd60e51b815260206004820152601e60248201527f41636365736f2064656e656761646f3a206e6f206175746f72697a61646f000060448201526064016101a2565b6000828152600260209081526040808320805482518185028101850190935280835291929091908301828280156105a957602002820191906000526020600020905b815481526020019060010190808311610595575b505050505090506000815190506000805b828110156106455760008060018684815181106105d9576105d961131e565b60200260200101516105eb9190611334565b815481106105fb576105fb61131e565b60009182526020909120600d600e90920201908101549091506001600160a01b0316331415610632578261062e81611303565b9350505b508061063d81611303565b9150506105ba565b5060008167ffffffffffffffff81111561066157610661610e6b565b60405190808252806020026020018201604052801561070d57816020015b6106fa604051806101c001604052806000815260200160008152602001606081526020016000815260200160608152602001606081526020016060815260200160608152602001606081526020016060815260200160008152602001606081526020016060815260200160006001600160a01b031681525090565b81526020019060019003908161067f5790505b5090506000805b84811015610d2b5760008060018884815181106107335761073361131e565b60200260200101516107459190611334565b815481106107555761075561131e565b60009182526020909120600d600e90920201908101549091506001600160a01b0316331415610d185780604051806101c001604052908160008201548152602001600182015481526020016002820180546107af9061134b565b80601f01602080910402602001604051908101604052809291908181526020018280546107db9061134b565b80156108285780601f106107fd57610100808354040283529160200191610828565b820191906000526020600020905b81548152906001019060200180831161080b57829003601f168201915b505050505081526020016003820154815260200160048201805461084b9061134b565b80601f01602080910402602001604051908101604052809291908181526020018280546108779061134b565b80156108c45780601f10610899576101008083540402835291602001916108c4565b820191906000526020600020905b8154815290600101906020018083116108a757829003601f168201915b505050505081526020016005820180546108dd9061134b565b80601f01602080910402602001604051908101604052809291908181526020018280546109099061134b565b80156109565780601f1061092b57610100808354040283529160200191610956565b820191906000526020600020905b81548152906001019060200180831161093957829003601f168201915b5050505050815260200160068201805461096f9061134b565b80601f016020809104026020016040519081016040528092919081815260200182805461099b9061134b565b80156109e85780601f106109bd576101008083540402835291602001916109e8565b820191906000526020600020905b8154815290600101906020018083116109cb57829003601f168201915b50505050508152602001600782018054610a019061134b565b80601f0160208091040260200160405190810160405280929190818152602001828054610a2d9061134b565b8015610a7a5780601f10610a4f57610100808354040283529160200191610a7a565b820191906000526020600020905b815481529060010190602001808311610a5d57829003601f168201915b50505050508152602001600882018054610a939061134b565b80601f0160208091040260200160405190810160405280929190818152602001828054610abf9061134b565b8015610b0c5780601f10610ae157610100808354040283529160200191610b0c565b820191906000526020600020905b815481529060010190602001808311610aef57829003601f168201915b50505050508152602001600982018054610b259061134b565b80601f0160208091040260200160405190810160405280929190818152602001828054610b519061134b565b8015610b9e5780601f10610b7357610100808354040283529160200191610b9e565b820191906000526020600020905b815481529060010190602001808311610b8157829003601f168201915b50505050508152602001600a8201548152602001600b82018054610bc19061134b565b80601f0160208091040260200160405190810160405280929190818152602001828054610bed9061134b565b8015610c3a5780601f10610c0f57610100808354040283529160200191610c3a565b820191906000526020600020905b815481529060010190602001808311610c1d57829003601f168201915b50505050508152602001600c82018054610c539061134b565b80601f0160208091040260200160405190810160405280929190818152602001828054610c7f9061134b565b8015610ccc5780601f10610ca157610100808354040283529160200191610ccc565b820191906000526020600020905b815481529060010190602001808311610caf57829003601f168201915b5050509183525050600d91909101546001600160a01b03166020909101528451859085908110610cfe57610cfe61131e565b60200260200101819052508280610d1490611303565b9350505b5080610d2381611303565b915050610714565b50909695505050505050565b828054610d439061134b565b90600052602060002090601f016020900481019282610d655760008555610dab565b82601f10610d7e57805160ff1916838001178555610dab565b82800160010185558215610dab579182015b82811115610dab578251825591602001919060010190610d90565b50610db7929150610dbb565b5090565b5b80821115610db75760008155600101610dbc565b600060208284031215610de257600080fd5b5035919050565b6020808252825182820181905260009190848201906040850190845b81811015610d2b57835183529284019291840191600101610e05565b60008060408385031215610e3457600080fd5b82356001600160a01b0381168114610e4b57600080fd5b915060208301358015158114610e6057600080fd5b809150509250929050565b634e487b7160e01b600052604160045260246000fd5b600082601f830112610e9257600080fd5b813567ffffffffffffffff80821115610ead57610ead610e6b565b604051601f8301601f19908116603f01168101908282118183101715610ed557610ed5610e6b565b81604052838152866020858801011115610eee57600080fd5b836020870160208301376000602085830101528094505050505092915050565b6000806000806000806000806000806000806101808d8f031215610f3157600080fd5b8c359b5067ffffffffffffffff60208e01351115610f4e57600080fd5b610f5e8e60208f01358f01610e81565b9a5060408d0135995067ffffffffffffffff60608e01351115610f8057600080fd5b610f908e60608f01358f01610e81565b985067ffffffffffffffff60808e01351115610fab57600080fd5b610fbb8e60808f01358f01610e81565b975067ffffffffffffffff60a08e01351115610fd657600080fd5b610fe68e60a08f01358f01610e81565b965067ffffffffffffffff60c08e0135111561100157600080fd5b6110118e60c08f01358f01610e81565b955067ffffffffffffffff60e08e0135111561102c57600080fd5b61103c8e60e08f01358f01610e81565b945067ffffffffffffffff6101008e0135111561105857600080fd5b6110698e6101008f01358f01610e81565b93506101208d0135925067ffffffffffffffff6101408e0135111561108d57600080fd5b61109e8e6101408f01358f01610e81565b915067ffffffffffffffff6101608e013511156110ba57600080fd5b6110cb8e6101608f01358f01610e81565b90509295989b509295989b509295989b565b6000815180845260005b81811015611103576020818501810151868301820152016110e7565b81811115611115576000602083870101525b50601f01601f19169290920160200192915050565b60006020808301818452808551808352604092508286019150828160051b87010184880160005b838110156112af57603f1989840301855281516101c0815185528882015189860152878201518189870152611188828701826110dd565b9150506060808301518187015250608080830151868303828801526111ad83826110dd565b9250505060a080830151868303828801526111c883826110dd565b9250505060c080830151868303828801526111e383826110dd565b9250505060e080830151868303828801526111fe83826110dd565b92505050610100808301518683038288015261121a83826110dd565b92505050610120808301518683038288015261123683826110dd565b92505050610140808301518187015250610160808301518683038288015261125e83826110dd565b92505050610180808301518683038288015261127a83826110dd565b925050506101a080830151925061129b818701846001600160a01b03169052565b509588019593505090860190600101611151565b509098975050505050505050565b8481528360208201526080604082015260006112dc60808301856110dd565b905082606083015295945050505050565b634e487b7160e01b600052601160045260246000fd5b6000600019821415611317576113176112ed565b5060010190565b634e487b7160e01b600052603260045260246000fd5b600082821015611346576113466112ed565b500390565b600181811c9082168061135f57607f821691505b6020821081141561138057634e487b7160e01b600052602260045260246000fd5b5091905056fea2646970667358221220a8727e96a88d96ce165a46d7287e734d3ef43b0e15a8befd01772f70c6b060d864736f6c634300080b0033",
  "immutableReferences": {},
  "source": "// SPDX-License-Identifier: MIT\r\npragma solidity ^0.8.0;\r\n\r\ncontract ClinicaDental {\r\n\r\n    struct Cita {\r\n        uint idCita;\r\n        uint idPaciente;\r\n        string profesionPaciente;\r\n        uint edadPaciente;\r\n\t\tstring peso;\r\n\t\tstring pulso;\r\n\t\tstring antecedentes_medicos;\r\n        string tipoSangre;\r\n        string alergias;\r\n        string nombreDentista;\r\n        uint fecha;\r\n        string motivo;\r\n        string observaciones;\r\n        address dentistaWallet;\r\n    }\r\n\r\n    // Almacn para las citas\r\n    Cita[] private citas;\r\n    uint private siguienteIdCita = 1;\r\n    mapping(uint => uint[]) private citasPorPaciente;\r\n\r\n    address private admin;\r\n    mapping(address => bool) private personalAutorizado;\r\n\r\n    event CitaAgregada(uint idCita, uint idPaciente, string nombreDentista, uint fecha);\r\n\r\n    constructor() {\r\n        admin = msg.sender;\r\n    }\r\n\r\n    modifier soloAutorizado() {\r\n        require(personalAutorizado[msg.sender] || msg.sender == admin, \"Acceso denegado: no autorizado\");\r\n        _;\r\n    }\r\n\r\n    function cambiarPermisoAcceso(address _usuario, bool _permiso) public {\r\n        require(msg.sender == admin, \"Solo el admin puede cambiar permisos\");\r\n        personalAutorizado[_usuario] = _permiso;\r\n    }\r\n\r\n    // Funcin para agregar una nueva cita\r\n    function agregarCita(\r\n        uint _idPaciente,\r\n        string memory _profesionPaciente,\r\n        uint _edadPaciente,\r\n\t\tstring memory _peso,\r\n\t\tstring memory _pulso,\r\n\t\tstring memory _antecedentes_medicos,\r\n        string memory _tipoSangre,\r\n        string memory _alergias,\r\n        string memory _nombreDentista,\r\n        uint _fecha,\r\n        string memory _motivo,\r\n        string memory _observaciones\r\n    ) public soloAutorizado {\r\n        Cita memory nuevaCita = Cita(\r\n            siguienteIdCita,\r\n            _idPaciente,\r\n            _profesionPaciente,\r\n            _edadPaciente,\r\n\t\t\t_peso,\r\n\t\t\t_pulso,\r\n\t\t\t_antecedentes_medicos,\r\n            _tipoSangre,\r\n            _alergias,\r\n            _nombreDentista,\r\n            _fecha,\r\n            _motivo,\r\n            _observaciones,\r\n            msg.sender // Almacena la direccin del dentista que crea la cita\r\n        );\r\n\r\n        citas.push(nuevaCita);\r\n        citasPorPaciente[_idPaciente].push(siguienteIdCita);\r\n        emit CitaAgregada(siguienteIdCita, _idPaciente, _nombreDentista, _fecha);\r\n        siguienteIdCita++;\r\n    }\r\n\r\n    // Funcin para obtener todas las citas de un paciente\r\n    // Esta funcin solo obtiene las citas del paciente sin filtrar por dentista\r\n    function getCitasDePacienteSinFiltrar(uint _idPaciente) public view returns (uint[] memory) {\r\n        return citasPorPaciente[_idPaciente];\r\n    }\r\n\r\n    // Funcin para obtener las citas de un paciente y filtrarlas por el dentista\r\n    function getCitasDePaciente(uint _idPaciente) public view soloAutorizado returns (Cita[] memory) {\r\n        uint[] memory idsCitas = citasPorPaciente[_idPaciente];\r\n        uint totalCitas = idsCitas.length;\r\n\r\n        // Primero, contar cuntas citas corresponden al dentista\r\n        uint contador = 0;\r\n        for (uint i = 0; i < totalCitas; i++) {\r\n            Cita storage cita = citas[idsCitas[i] - 1];\r\n            if (cita.dentistaWallet == msg.sender) {\r\n                contador++;\r\n            }\r\n        }\r\n\r\n        // Crear un array con el tamao adecuado para las citas del dentista\r\n        Cita[] memory citasFiltradas = new Cita[](contador);\r\n        uint index = 0;\r\n\r\n        // Llenamos el array de citas filtradas\r\n        for (uint i = 0; i < totalCitas; i++) {\r\n            Cita storage cita = citas[idsCitas[i] - 1];\r\n            if (cita.dentistaWallet == msg.sender) {\r\n                citasFiltradas[index] = cita;\r\n                index++;\r\n            }\r\n        }\r\n        return citasFiltradas;\r\n    }\r\n\r\n    function getNumeroDeCitas() public view returns (uint) {\r\n        return citas.length;\r\n    }\r\n}\r\n",
  "sourcePath": "D:\\Warning\\Documentos\\dentline-frontend\\dentline-frontend\\contracts\\ClinicaDental.sol",
  "compiler": {
    "name": "solc",
    "version": "0.8.11+commit.d7f03943.Emscripten.clang"
  },
  "schemaVersion": "3.4.16",
  "updatedAt": "2025-01-10T18:46:56.067Z",
  "networkType": "ethereum",
  "devdoc": {
    "kind": "dev",
    "methods": {},
    "version": 1
  },
  "userdoc": {
    "kind": "user",
    "methods": {},
    "version": 1
  }
}